{
  "contractName": "PiggyBank",
  "abi": [
    {
      "constant": true,
      "inputs": [
        {
          "name": "",
          "type": "address"
        },
        {
          "name": "",
          "type": "uint16"
        }
      ],
      "name": "myBoxes",
      "outputs": [
        {
          "name": "owner",
          "type": "address"
        },
        {
          "name": "targetFigure",
          "type": "uint256"
        },
        {
          "name": "balance",
          "type": "uint256"
        }
      ],
      "payable": false,
      "stateMutability": "view",
      "type": "function",
      "signature": "0x85f6903c"
    },
    {
      "anonymous": false,
      "inputs": [
        {
          "indexed": true,
          "name": "_from",
          "type": "address"
        },
        {
          "indexed": true,
          "name": "_to",
          "type": "uint16"
        },
        {
          "indexed": true,
          "name": "_amount",
          "type": "uint256"
        }
      ],
      "name": "Deposit",
      "type": "event",
      "signature": "0x2c00706df3fbb4a8ead830d4c0a7f278823843af15ad7e680c4f7db763dd779c"
    },
    {
      "anonymous": false,
      "inputs": [
        {
          "indexed": true,
          "name": "_whichBox",
          "type": "uint16"
        },
        {
          "indexed": true,
          "name": "_to",
          "type": "address"
        },
        {
          "indexed": true,
          "name": "_amount",
          "type": "uint256"
        }
      ],
      "name": "Withdraw",
      "type": "event",
      "signature": "0x3a1f8a7d4c39f62327e9a798fb5c25bdd080a161bd152f56eb2e2c7d6ad69fb8"
    },
    {
      "constant": false,
      "inputs": [
        {
          "name": "_boxid",
          "type": "uint16"
        },
        {
          "name": "_targetFigure",
          "type": "uint256"
        }
      ],
      "name": "createBox",
      "outputs": [],
      "payable": false,
      "stateMutability": "nonpayable",
      "type": "function",
      "signature": "0xece72c72"
    },
    {
      "constant": true,
      "inputs": [
        {
          "name": "_boxid",
          "type": "uint16"
        }
      ],
      "name": "getBoxInfo",
      "outputs": [
        {
          "name": "",
          "type": "uint256"
        },
        {
          "name": "",
          "type": "uint256"
        }
      ],
      "payable": false,
      "stateMutability": "view",
      "type": "function",
      "signature": "0x1f93ac0f"
    },
    {
      "constant": false,
      "inputs": [
        {
          "name": "_boxid",
          "type": "uint16"
        },
        {
          "name": "_amount",
          "type": "uint256"
        }
      ],
      "name": "deposit",
      "outputs": [],
      "payable": true,
      "stateMutability": "payable",
      "type": "function",
      "signature": "0x859fe6c7"
    },
    {
      "constant": false,
      "inputs": [
        {
          "name": "_boxid",
          "type": "uint16"
        }
      ],
      "name": "withdraw",
      "outputs": [],
      "payable": false,
      "stateMutability": "nonpayable",
      "type": "function",
      "signature": "0x3d972839"
    },
    {
      "constant": true,
      "inputs": [],
      "name": "checkBalance",
      "outputs": [
        {
          "name": "",
          "type": "uint256"
        }
      ],
      "payable": false,
      "stateMutability": "view",
      "type": "function",
      "signature": "0xc71daccb"
    },
    {
      "constant": false,
      "inputs": [
        {
          "name": "_boxid",
          "type": "uint16"
        }
      ],
      "name": "breakBox",
      "outputs": [],
      "payable": false,
      "stateMutability": "nonpayable",
      "type": "function",
      "signature": "0xba7a2dae"
    }
  ],
  "bytecode": "0x608060405234801561001057600080fd5b50610b99806100206000396000f3fe608060405260043610610083576000357c0100000000000000000000000000000000000000000000000000000000900463ffffffff1680631f93ac0f146100885780633d972839146100e2578063859fe6c71461012157806385f6903c1461015d578063ba7a2dae1461020a578063c71daccb14610249578063ece72c7214610274575b600080fd5b34801561009457600080fd5b506100c5600480360360208110156100ab57600080fd5b81019080803561ffff1690602001909291905050506102bd565b604051808381526020018281526020019250505060405180910390f35b3480156100ee57600080fd5b5061011f6004803603602081101561010557600080fd5b81019080803561ffff169060200190929190505050610435565b005b61015b6004803603604081101561013757600080fd5b81019080803561ffff1690602001909291908035906020019092919050505061070a565b005b34801561016957600080fd5b506101ba6004803603604081101561018057600080fd5b81019080803573ffffffffffffffffffffffffffffffffffffffff169060200190929190803561ffff1690602001909291905050506108e6565b604051808473ffffffffffffffffffffffffffffffffffffffff1673ffffffffffffffffffffffffffffffffffffffff168152602001838152602001828152602001935050505060405180910390f35b34801561021657600080fd5b506102476004803603602081101561022d57600080fd5b81019080803561ffff16906020019092919050505061093d565b005b34801561025557600080fd5b5061025e6109d1565b6040518082815260200191505060405180910390f35b34801561028057600080fd5b506102bb6004803603604081101561029757600080fd5b81019080803561ffff169060200190929190803590602001909291905050506109f0565b005b600080826000803373ffffffffffffffffffffffffffffffffffffffff1673ffffffffffffffffffffffffffffffffffffffff16815260200190815260200160002060008261ffff1661ffff16815260200190815260200160002060000160009054906101000a900473ffffffffffffffffffffffffffffffffffffffff1673ffffffffffffffffffffffffffffffffffffffff163373ffffffffffffffffffffffffffffffffffffffff1614151561037557600080fd5b6000803373ffffffffffffffffffffffffffffffffffffffff1673ffffffffffffffffffffffffffffffffffffffff16815260200190815260200160002060008561ffff1661ffff168152602001908152602001600020600101546000803373ffffffffffffffffffffffffffffffffffffffff1673ffffffffffffffffffffffffffffffffffffffff16815260200190815260200160002060008661ffff1661ffff168152602001908152602001600020600201549250925050915091565b806000803373ffffffffffffffffffffffffffffffffffffffff1673ffffffffffffffffffffffffffffffffffffffff16815260200190815260200160002060008261ffff1661ffff16815260200190815260200160002060000160009054906101000a900473ffffffffffffffffffffffffffffffffffffffff1673ffffffffffffffffffffffffffffffffffffffff163373ffffffffffffffffffffffffffffffffffffffff161415156104ea57600080fd5b6000803373ffffffffffffffffffffffffffffffffffffffff1673ffffffffffffffffffffffffffffffffffffffff16815260200190815260200160002060008361ffff1661ffff168152602001908152602001600020600201546000803373ffffffffffffffffffffffffffffffffffffffff1673ffffffffffffffffffffffffffffffffffffffff16815260200190815260200160002060008461ffff1661ffff16815260200190815260200160002060010154111515156105ad57600080fd5b60008060003373ffffffffffffffffffffffffffffffffffffffff1673ffffffffffffffffffffffffffffffffffffffff16815260200190815260200160002060008461ffff1661ffff16815260200190815260200160002060020154905060008060003373ffffffffffffffffffffffffffffffffffffffff1673ffffffffffffffffffffffffffffffffffffffff16815260200190815260200160002060008561ffff1661ffff168152602001908152602001600020600201819055503373ffffffffffffffffffffffffffffffffffffffff166108fc829081150290604051600060405180830381858888f193505050501580156106b2573d6000803e3d6000fd5b506106bc8361093d565b803373ffffffffffffffffffffffffffffffffffffffff168461ffff167f3a1f8a7d4c39f62327e9a798fb5c25bdd080a161bd152f56eb2e2c7d6ad69fb860405160405180910390a4505050565b816000803373ffffffffffffffffffffffffffffffffffffffff1673ffffffffffffffffffffffffffffffffffffffff16815260200190815260200160002060008261ffff1661ffff16815260200190815260200160002060000160009054906101000a900473ffffffffffffffffffffffffffffffffffffffff1673ffffffffffffffffffffffffffffffffffffffff163373ffffffffffffffffffffffffffffffffffffffff161415156107bf57600080fd5b81341415156107cd57600080fd5b61083a346000803373ffffffffffffffffffffffffffffffffffffffff1673ffffffffffffffffffffffffffffffffffffffff16815260200190815260200160002060008661ffff1661ffff16815260200190815260200160002060020154610b4c90919063ffffffff16565b6000803373ffffffffffffffffffffffffffffffffffffffff1673ffffffffffffffffffffffffffffffffffffffff16815260200190815260200160002060008561ffff1661ffff16815260200190815260200160002060020181905550818361ffff163373ffffffffffffffffffffffffffffffffffffffff167f2c00706df3fbb4a8ead830d4c0a7f278823843af15ad7e680c4f7db763dd779c60405160405180910390a4505050565b6000602052816000526040600020602052806000526040600020600091509150508060000160009054906101000a900473ffffffffffffffffffffffffffffffffffffffff16908060010154908060020154905083565b6000803373ffffffffffffffffffffffffffffffffffffffff1673ffffffffffffffffffffffffffffffffffffffff16815260200190815260200160002060008261ffff1661ffff168152602001908152602001600020600080820160006101000a81549073ffffffffffffffffffffffffffffffffffffffff021916905560018201600090556002820160009055505050565b60003373ffffffffffffffffffffffffffffffffffffffff1631905090565b336000803373ffffffffffffffffffffffffffffffffffffffff1673ffffffffffffffffffffffffffffffffffffffff16815260200190815260200160002060008461ffff1661ffff16815260200190815260200160002060000160006101000a81548173ffffffffffffffffffffffffffffffffffffffff021916908373ffffffffffffffffffffffffffffffffffffffff160217905550806000803373ffffffffffffffffffffffffffffffffffffffff1673ffffffffffffffffffffffffffffffffffffffff16815260200190815260200160002060008461ffff1661ffff1681526020019081526020016000206001018190555060008060003373ffffffffffffffffffffffffffffffffffffffff1673ffffffffffffffffffffffffffffffffffffffff16815260200190815260200160002060008461ffff1661ffff168152602001908152602001600020600201819055505050565b6000808284019050838110151515610b6357600080fd5b809150509291505056fea165627a7a72305820c75a4e7463cc8de8017ae70b966c55eef1a37a8ce8c72868f283115eebea65120029",
  "source": "pragma solidity >0.4.99 <0.6.0;\n\nimport \"./SafeMath.sol\";\n\ncontract PiggyBank {\n\n    using SafeMath for uint256;\n    \n    struct Box {\n        address owner;\n        uint256 targetFigure;\n        uint256 balance;\n    }\n\n    mapping (address =>  mapping (uint16 => Box)) public myBoxes;\n    \n    event Deposit (\n        address indexed _from,\n        uint16 indexed _to,\n        uint256 indexed _amount\n    );\n    \n    event Withdraw (\n        uint16 indexed _whichBox,\n        address indexed _to,\n        uint256 indexed _amount\n    );\n    \n    function createBox(uint16 _boxid, uint _targetFigure) public {\n        myBoxes[msg.sender][_boxid].owner = msg.sender;\n        myBoxes[msg.sender][_boxid].targetFigure = _targetFigure;\n        myBoxes[msg.sender][_boxid].balance = 0;\n    }\n    \n    function getBoxInfo(uint16 _boxid) onlyOwner(_boxid) public view returns (uint256, uint256) {\n        return (myBoxes[msg.sender][_boxid].targetFigure, myBoxes[msg.sender][_boxid].balance);\n    }\n\n    function deposit(uint16 _boxid,uint256 _amount) onlyOwner(_boxid) public payable {\n        require(msg.value == _amount);\n        myBoxes[msg.sender][_boxid].balance = myBoxes[msg.sender][_boxid].balance.add(msg.value);\n        emit Deposit(msg.sender,_boxid, _amount);\n    }\n   \n    function withdraw(uint16 _boxid) onlyOwner(_boxid) public {\n        require(myBoxes[msg.sender][_boxid].targetFigure <= myBoxes[msg.sender][_boxid].balance);\n        uint amount = myBoxes[msg.sender][_boxid].balance;\n        myBoxes[msg.sender][_boxid].balance = 0 ;\n        msg.sender.transfer(amount);\n        breakBox(_boxid); \n        emit Withdraw (_boxid, msg.sender, amount);\n    }\n    \n    function checkBalance() view public returns (uint){\n        return(msg.sender.balance);\n    }\n    \n    function breakBox(uint16 _boxid) public {\n        delete myBoxes[msg.sender][_boxid];\n    }\n    \n     modifier onlyOwner(uint16 _boxid) {\n       require(msg.sender == myBoxes[msg.sender][_boxid].owner);\n        _;\n    }\n}\n",
  "sourcePath": "/Users/sugawarasyuta/Desktop/dev/dapps/piggybank2/contracts/PiggyBank.sol",
  "compiler": {
    "name": "solc",
    "version": "0.5.0+commit.1d4f565a.Emscripten.clang"
  },
  "schemaVersion": "3.0.0",
  "updatedAt": "2018-12-31T11:09:09.085Z",
  "devdoc": {
    "methods": {}
  },
  "userdoc": {
    "methods": {}
  }
}